{
  "contractName": "Insurance",
  "abi": [
    {
      "inputs": [],
      "stateMutability": "nonpayable",
      "type": "constructor"
    },
    {
      "anonymous": false,
      "inputs": [
        {
          "indexed": false,
          "internalType": "uint256",
          "name": "policyId",
          "type": "uint256"
        },
        {
          "indexed": false,
          "internalType": "address",
          "name": "holder",
          "type": "address"
        }
      ],
      "name": "Claimed",
      "type": "event"
    },
    {
      "anonymous": false,
      "inputs": [
        {
          "indexed": false,
          "internalType": "uint256",
          "name": "policyId",
          "type": "uint256"
        },
        {
          "indexed": false,
          "internalType": "address",
          "name": "holder",
          "type": "address"
        }
      ],
      "name": "PolicyPurchased",
      "type": "event"
    },
    {
      "inputs": [],
      "name": "insurer",
      "outputs": [
        {
          "internalType": "address",
          "name": "",
          "type": "address"
        }
      ],
      "stateMutability": "view",
      "type": "function",
      "constant": true
    },
    {
      "inputs": [
        {
          "internalType": "uint256",
          "name": "",
          "type": "uint256"
        }
      ],
      "name": "policies",
      "outputs": [
        {
          "internalType": "address payable",
          "name": "holder",
          "type": "address"
        },
        {
          "internalType": "uint256",
          "name": "premium",
          "type": "uint256"
        },
        {
          "internalType": "uint256",
          "name": "payout",
          "type": "uint256"
        },
        {
          "internalType": "bool",
          "name": "active",
          "type": "bool"
        },
        {
          "internalType": "bool",
          "name": "claimed",
          "type": "bool"
        }
      ],
      "stateMutability": "view",
      "type": "function",
      "constant": true
    },
    {
      "inputs": [],
      "name": "policyCount",
      "outputs": [
        {
          "internalType": "uint256",
          "name": "",
          "type": "uint256"
        }
      ],
      "stateMutability": "view",
      "type": "function",
      "constant": true
    },
    {
      "inputs": [
        {
          "internalType": "uint256",
          "name": "_payout",
          "type": "uint256"
        }
      ],
      "name": "buyPolicy",
      "outputs": [],
      "stateMutability": "payable",
      "type": "function",
      "payable": true
    },
    {
      "inputs": [
        {
          "internalType": "uint256",
          "name": "_policyId",
          "type": "uint256"
        }
      ],
      "name": "claimPolicy",
      "outputs": [],
      "stateMutability": "nonpayable",
      "type": "function"
    },
    {
      "inputs": [
        {
          "internalType": "uint256",
          "name": "_policyId",
          "type": "uint256"
        }
      ],
      "name": "getPolicy",
      "outputs": [
        {
          "internalType": "address",
          "name": "holder",
          "type": "address"
        },
        {
          "internalType": "uint256",
          "name": "premium",
          "type": "uint256"
        },
        {
          "internalType": "uint256",
          "name": "payout",
          "type": "uint256"
        },
        {
          "internalType": "bool",
          "name": "active",
          "type": "bool"
        },
        {
          "internalType": "bool",
          "name": "claimed",
          "type": "bool"
        }
      ],
      "stateMutability": "view",
      "type": "function",
      "constant": true
    },
    {
      "inputs": [],
      "name": "fundContract",
      "outputs": [],
      "stateMutability": "payable",
      "type": "function",
      "payable": true
    }
  ],
  "bytecode": "0x608060405234801561001057600080fd5b506001600081905580546001600160a01b03191633179055610832806100376000396000f3fe6080604052600436106100705760003560e01c8063bd097e211161004e578063bd097e2114610105578063d3e894831461010d578063dbc837c514610167578063de54d4291461019f57600080fd5b80632aea118d146100755780632b07fce31461009757806379c88894146100f2575b600080fd5b34801561008157600080fd5b506100956100903660046107bc565b6101c3565b005b3480156100a357600080fd5b506100b76100b23660046107bc565b610454565b604080516001600160a01b039096168652602086019490945292840191909152151560608301521515608082015260a0015b60405180910390f35b6100956101003660046107bc565b61051c565b61009561070f565b34801561011957600080fd5b506100b76101283660046107bc565b600260208190526000918252604090912080546001820154928201546003909201546001600160a01b0390911692919060ff8082169161010090041685565b34801561017357600080fd5b50600154610187906001600160a01b031681565b6040516001600160a01b0390911681526020016100e9565b3480156101ab57600080fd5b506101b560035481565b6040519081526020016100e9565b6101cb610763565b6000811180156101dd57506003548111155b6102225760405162461bcd60e51b8152602060048201526011602482015270125b9d985b1a59081c1bdb1a58de481251607a1b60448201526064015b60405180910390fd5b6000818152600260205260409020600381015460ff1661027b5760405162461bcd60e51b8152602060048201526014602482015273506f6c696379206973206e6f742061637469766560601b6044820152606401610219565b6003810154610100900460ff16156102ce5760405162461bcd60e51b8152602060048201526016602482015275141bdb1a58de48185b1c9958591e4818db185a5b595960521b6044820152606401610219565b80546001600160a01b0316331461031b5760405162461bcd60e51b81526020600482015260116024820152702737ba103837b634b1bc903437b63232b960791b6044820152606401610219565b80600201544710156103645760405162461bcd60e51b8152602060048201526012602482015271496e73756666696369656e742066756e647360701b6044820152606401610219565b60038101805461ffff1916610100179055805460028201546040516000926001600160a01b031691908381818185875af1925050503d80600081146103c5576040519150601f19603f3d011682016040523d82523d6000602084013e6103ca565b606091505b505090508061040d5760405162461bcd60e51b815260206004820152600f60248201526e151c985b9cd9995c8819985a5b1959608a1b6044820152606401610219565b604080518481523360208201527f6aa3eac93d079e5e100b1029be716caa33586c96aa4baac390669fb5c2a21212910160405180910390a150506104516001600055565b50565b6000806000806000808611801561046d57506003548611155b6104ad5760405162461bcd60e51b8152602060048201526011602482015270125b9d985b1a59081c1bdb1a58de481251607a1b6044820152606401610219565b5050506000928352505060026020818152604092839020835160a08101855281546001600160a01b031680825260018301549382018490529382015494810185905260039091015460ff8082161515606084018190526101009092041615156080909201829052929491939291565b610524610763565b600034116105745760405162461bcd60e51b815260206004820152601e60248201527f5072656d69756d206d7573742062652067726561746572207468616e203000006044820152606401610219565b600081116105c45760405162461bcd60e51b815260206004820152601d60248201527f5061796f7574206d7573742062652067726561746572207468616e20300000006044820152606401610219565b348110156106255760405162461bcd60e51b815260206004820152602860248201527f5061796f7574206d757374206265206174206c6561737420657175616c20746f604482015267207072656d69756d60c01b6064820152608401610219565b60038054906000610635836107d5565b90915550506040805160a081018252338082523460208084019182528385018681526001606086018181526000608088018181526003805483526002808852928b902099518a546001600160a01b0319166001600160a01b03909116178a5596519389019390935592519287019290925590519483018054915161ffff1990921695151561ff001916959095176101009115159190910217909355548351908152918201527f60d59b58b916d11d0ac52c397e342e25ae6dc5da412115d469d304bf4dd86404910160405180910390a16104516001600055565b6001546001600160a01b031633146107615760405162461bcd60e51b815260206004820152601560248201527413db9b1e481a5b9cdd5c995c8818d85b88199d5b99605a1b6044820152606401610219565b565b6002600054036107b55760405162461bcd60e51b815260206004820152601f60248201527f5265656e7472616e637947756172643a207265656e7472616e742063616c6c006044820152606401610219565b6002600055565b6000602082840312156107ce57600080fd5b5035919050565b6000600182016107f557634e487b7160e01b600052601160045260246000fd5b506001019056fea2646970667358221220aa95606fbb42e537b0644e156848948056707cc84bff451dcf7752cd0814e6b464736f6c63430008130033",
  "immutableReferences": {},
  "source": "// SPDX-License-Identifier: MIT\npragma solidity ^0.8.0;\n\nimport \"@openzeppelin/contracts/security/ReentrancyGuard.sol\";\n\ncontract Insurance is ReentrancyGuard {\n    address public insurer;\n\n    struct Policy {\n        address payable holder;\n        uint premium;\n        uint payout;\n        bool active;\n        bool claimed;\n    }\n\n    mapping(uint => Policy) public policies;\n    uint public policyCount;\n\n    event PolicyPurchased(uint policyId, address holder);\n    event Claimed(uint policyId, address holder);\n\n    constructor() {\n        insurer = msg.sender;\n    }\n    \n    function buyPolicy(uint _payout) public payable nonReentrant {\n        require(msg.value > 0, \"Premium must be greater than 0\");\n        require(_payout > 0, \"Payout must be greater than 0\");\n        require(_payout >= msg.value, \"Payout must be at least equal to premium\");\n\n        policyCount++;\n        policies[policyCount] = Policy(\n            payable(msg.sender),\n            msg.value,\n            _payout,\n            true,\n            false\n        );\n\n        emit PolicyPurchased(policyCount, msg.sender);\n    }\n\n    function claimPolicy(uint _policyId) public nonReentrant {\n        require(_policyId > 0 && _policyId <= policyCount, \"Invalid policy ID\");\n        Policy storage policy = policies[_policyId];\n\n        require(policy.active, \"Policy is not active\");\n        require(!policy.claimed, \"Policy already claimed\");\n        require(msg.sender == policy.holder, \"Not policy holder\");\n        require(address(this).balance >= policy.payout, \"Insufficient funds\");\n\n        policy.claimed = true;\n        policy.active = false;\n\n        (bool success, ) = policy.holder.call{value: policy.payout}(\"\");\n        require(success, \"Transfer failed\");\n        \n        emit Claimed(_policyId, msg.sender);\n    }\n\n    function getPolicy(uint _policyId) public view returns (\n        address holder,\n        uint premium,\n        uint payout,\n        bool active,\n        bool claimed\n    ) {\n        require(_policyId > 0 && _policyId <= policyCount, \"Invalid policy ID\");\n        Policy memory policy = policies[_policyId];\n        return (policy.holder, policy.premium, policy.payout, policy.active, policy.claimed);\n    }\n\n    function fundContract() public payable {\n        require(msg.sender == insurer, \"Only insurer can fund\");\n    }\n}\n",
  "sourcePath": "/home/thoshan/insurance/contracts/Insurance.sol",
  "compiler": {
    "name": "solc",
    "version": "0.8.19+commit.7dd6d404.Emscripten.clang"
  },
  "schemaVersion": "3.4.16",
  "updatedAt": "2025-07-22T11:58:15.082Z",
  "networkType": "ethereum",
  "devdoc": {
    "kind": "dev",
    "methods": {},
    "version": 1
  },
  "userdoc": {
    "kind": "user",
    "methods": {},
    "version": 1
  }
}